{
  "contractName": "DID",
  "abi": [
    {
      "inputs": [
        {
          "internalType": "string",
          "name": "_hashedId",
          "type": "string"
        },
        {
          "components": [
            {
              "internalType": "string",
              "name": "gender",
              "type": "string"
            },
            {
              "internalType": "string",
              "name": "name",
              "type": "string"
            },
            {
              "internalType": "string",
              "name": "age",
              "type": "string"
            },
            {
              "internalType": "string",
              "name": "addr",
              "type": "string"
            },
            {
              "internalType": "string",
              "name": "mobile",
              "type": "string"
            },
            {
              "internalType": "string",
              "name": "email",
              "type": "string"
            }
          ],
          "internalType": "struct IDID.User",
          "name": "_data",
          "type": "tuple"
        }
      ],
      "name": "registerUser",
      "outputs": [],
      "stateMutability": "nonpayable",
      "type": "function"
    },
    {
      "inputs": [
        {
          "internalType": "string",
          "name": "_hashedId",
          "type": "string"
        },
        {
          "internalType": "string",
          "name": "_hashedId_new",
          "type": "string"
        }
      ],
      "name": "updatePassword",
      "outputs": [],
      "stateMutability": "nonpayable",
      "type": "function"
    },
    {
      "inputs": [
        {
          "internalType": "string",
          "name": "_hashedId",
          "type": "string"
        },
        {
          "components": [
            {
              "internalType": "string",
              "name": "gender",
              "type": "string"
            },
            {
              "internalType": "string",
              "name": "name",
              "type": "string"
            },
            {
              "internalType": "string",
              "name": "age",
              "type": "string"
            },
            {
              "internalType": "string",
              "name": "addr",
              "type": "string"
            },
            {
              "internalType": "string",
              "name": "mobile",
              "type": "string"
            },
            {
              "internalType": "string",
              "name": "email",
              "type": "string"
            }
          ],
          "internalType": "struct IDID.User",
          "name": "_data",
          "type": "tuple"
        }
      ],
      "name": "updateUser",
      "outputs": [],
      "stateMutability": "nonpayable",
      "type": "function"
    },
    {
      "inputs": [
        {
          "internalType": "string",
          "name": "_hashedId",
          "type": "string"
        }
      ],
      "name": "deleteUser",
      "outputs": [],
      "stateMutability": "nonpayable",
      "type": "function"
    },
    {
      "inputs": [
        {
          "internalType": "string",
          "name": "_hashedId",
          "type": "string"
        }
      ],
      "name": "getUser",
      "outputs": [
        {
          "components": [
            {
              "internalType": "string",
              "name": "gender",
              "type": "string"
            },
            {
              "internalType": "string",
              "name": "name",
              "type": "string"
            },
            {
              "internalType": "string",
              "name": "age",
              "type": "string"
            },
            {
              "internalType": "string",
              "name": "addr",
              "type": "string"
            },
            {
              "internalType": "string",
              "name": "mobile",
              "type": "string"
            },
            {
              "internalType": "string",
              "name": "email",
              "type": "string"
            }
          ],
          "internalType": "struct IDID.User",
          "name": "",
          "type": "tuple"
        }
      ],
      "stateMutability": "view",
      "type": "function",
      "constant": true
    },
    {
      "inputs": [
        {
          "internalType": "string",
          "name": "_identifier",
          "type": "string"
        },
        {
          "components": [
            {
              "internalType": "bool",
              "name": "gender",
              "type": "bool"
            },
            {
              "internalType": "bool",
              "name": "name",
              "type": "bool"
            },
            {
              "internalType": "bool",
              "name": "age",
              "type": "bool"
            },
            {
              "internalType": "bool",
              "name": "addr",
              "type": "bool"
            },
            {
              "internalType": "bool",
              "name": "mobile",
              "type": "bool"
            },
            {
              "internalType": "bool",
              "name": "email",
              "type": "bool"
            }
          ],
          "internalType": "struct IDID.NeededUser",
          "name": "_shouldSend",
          "type": "tuple"
        }
      ],
      "name": "getVP",
      "outputs": [
        {
          "components": [
            {
              "internalType": "string",
              "name": "gender",
              "type": "string"
            },
            {
              "internalType": "string",
              "name": "name",
              "type": "string"
            },
            {
              "internalType": "string",
              "name": "age",
              "type": "string"
            },
            {
              "internalType": "string",
              "name": "addr",
              "type": "string"
            },
            {
              "internalType": "string",
              "name": "mobile",
              "type": "string"
            },
            {
              "internalType": "string",
              "name": "email",
              "type": "string"
            }
          ],
          "internalType": "struct IDID.User",
          "name": "",
          "type": "tuple"
        }
      ],
      "stateMutability": "view",
      "type": "function",
      "constant": true
    },
    {
      "inputs": [
        {
          "internalType": "string",
          "name": "_hashedId",
          "type": "string"
        }
      ],
      "name": "isRegistered",
      "outputs": [
        {
          "internalType": "bool",
          "name": "",
          "type": "bool"
        }
      ],
      "stateMutability": "view",
      "type": "function",
      "constant": true
    }
  ],
  "bytecode": "0x608060405234801561001057600080fd5b50611602806100206000396000f3fe608060405234801561001057600080fd5b506004361061007d5760003560e01c80637b36acfe1161005b5780637b36acfe146100fe578063c822d7f01461011a578063cdfbb3511461014a578063d3695161146101665761007d565b806323596c9a1461008257806331feb6711461009e578063680ff0d5146100ce575b600080fd5b61009c60048036038101906100979190610da6565b610182565b005b6100b860048036038101906100b39190610e1e565b6102cc565b6040516100c59190610f9b565b60405180910390f35b6100e860048036038101906100e39190611095565b610670565b6040516100f59190610f9b565b60405180910390f35b61011860048036038101906101139190610da6565b610740565b005b610134600480360381019061012f9190610e1e565b610853565b6040516101419190611100565b60405180910390f35b610164600480360381019061015f919061111b565b610888565b005b610180600480360381019061017b9190610e1e565b61099a565b005b61018b82610853565b1561019557600080fd5b61019d610a67565b81600001518160000181905250816020015181602001819052508160400151816040018190525081606001518160600181905250816080015181608001819052508160a001518160a00181905250600180846040516101fc91906111cf565b908152602001604051809103902060006101000a81548160ff0219169083151502179055508160008460405161023291906111cf565b9081526020016040518091039020600082015181600001908161025591906113fc565b50602082015181600101908161026b91906113fc565b50604082015181600201908161028191906113fc565b50606082015181600301908161029791906113fc565b5060808201518160040190816102ad91906113fc565b5060a08201518160050190816102c391906113fc565b50905050505050565b6102d4610a67565b6000826040516102e491906111cf565b90815260200160405180910390206040518060c001604052908160008201805461030d90611215565b80601f016020809104026020016040519081016040528092919081815260200182805461033990611215565b80156103865780601f1061035b57610100808354040283529160200191610386565b820191906000526020600020905b81548152906001019060200180831161036957829003601f168201915b5050505050815260200160018201805461039f90611215565b80601f01602080910402602001604051908101604052809291908181526020018280546103cb90611215565b80156104185780601f106103ed57610100808354040283529160200191610418565b820191906000526020600020905b8154815290600101906020018083116103fb57829003601f168201915b5050505050815260200160028201805461043190611215565b80601f016020809104026020016040519081016040528092919081815260200182805461045d90611215565b80156104aa5780601f1061047f576101008083540402835291602001916104aa565b820191906000526020600020905b81548152906001019060200180831161048d57829003601f168201915b505050505081526020016003820180546104c390611215565b80601f01602080910402602001604051908101604052809291908181526020018280546104ef90611215565b801561053c5780601f106105115761010080835404028352916020019161053c565b820191906000526020600020905b81548152906001019060200180831161051f57829003601f168201915b5050505050815260200160048201805461055590611215565b80601f016020809104026020016040519081016040528092919081815260200182805461058190611215565b80156105ce5780601f106105a3576101008083540402835291602001916105ce565b820191906000526020600020905b8154815290600101906020018083116105b157829003601f168201915b505050505081526020016005820180546105e790611215565b80601f016020809104026020016040519081016040528092919081815260200182805461061390611215565b80156106605780601f1061063557610100808354040283529160200191610660565b820191906000526020600020905b81548152906001019060200180831161064357829003601f168201915b5050505050815250509050919050565b610678610a67565b61068183610853565b61068a57600080fd5b610692610a67565b61069a610a67565b6106a3856102cc565b91508360600151156106bd57816060015181606001819052505b8360000151156106d557816000015181600001819052505b8360200151156106ed57816020015181602001819052505b83604001511561070557816040015181604001819052505b83608001511561071d57816080015181608001819052505b8360a0015115610735578160a001518160a001819052505b809250505092915050565b61074982610853565b61075257600080fd5b61075a610a67565b81600001518160000181905250816020015181602001819052508160400151816040018190525081606001518160600181905250816080015181608001819052508160a001518160a00181905250806000846040516107b991906111cf565b908152602001604051809103902060008201518160000190816107dc91906113fc565b5060208201518160010190816107f291906113fc565b50604082015181600201908161080891906113fc565b50606082015181600301908161081e91906113fc565b50608082015181600401908161083491906113fc565b5060a082015181600501908161084a91906113fc565b50905050505050565b600060018260405161086591906111cf565b908152602001604051809103902060009054906101000a900460ff169050919050565b61089182610853565b61089a57600080fd5b6000826040516108aa91906111cf565b90815260200160405180910390206000826040516108c891906111cf565b9081526020016040518091039020600082018160000190816108ea91906114e4565b50600182018160010190816108ff91906114e4565b506002820181600201908161091491906114e4565b506003820181600301908161092991906114e4565b506004820181600401908161093e91906114e4565b506005820181600501908161095391906114e4565b509050506001808260405161096891906111cf565b908152602001604051809103902060006101000a81548160ff0219169083151502179055506109968261099a565b5050565b6109a381610853565b6109ac57600080fd5b6000816040516109bc91906111cf565b9081526020016040518091039020600080820160006109db9190610a9d565b6001820160006109eb9190610a9d565b6002820160006109fb9190610a9d565b600382016000610a0b9190610a9d565b600482016000610a1b9190610a9d565b600582016000610a2b9190610a9d565b50506000600182604051610a3f91906111cf565b908152602001604051809103902060006101000a81548160ff02191690831515021790555050565b6040518060c001604052806060815260200160608152602001606081526020016060815260200160608152602001606081525090565b508054610aa990611215565b6000825580601f10610abb5750610ada565b601f016020900490600052602060002090810190610ad99190610add565b5b50565b5b80821115610af6576000816000905550600101610ade565b5090565b6000604051905090565b600080fd5b600080fd5b600080fd5b600080fd5b6000601f19601f8301169050919050565b7f4e487b7100000000000000000000000000000000000000000000000000000000600052604160045260246000fd5b610b6182610b18565b810181811067ffffffffffffffff82111715610b8057610b7f610b29565b5b80604052505050565b6000610b93610afa565b9050610b9f8282610b58565b919050565b600067ffffffffffffffff821115610bbf57610bbe610b29565b5b610bc882610b18565b9050602081019050919050565b82818337600083830152505050565b6000610bf7610bf284610ba4565b610b89565b905082815260208101848484011115610c1357610c12610b13565b5b610c1e848285610bd5565b509392505050565b600082601f830112610c3b57610c3a610b0e565b5b8135610c4b848260208601610be4565b91505092915050565b600080fd5b600080fd5b600060c08284031215610c7457610c73610c54565b5b610c7e60c0610b89565b9050600082013567ffffffffffffffff811115610c9e57610c9d610c59565b5b610caa84828501610c26565b600083015250602082013567ffffffffffffffff811115610cce57610ccd610c59565b5b610cda84828501610c26565b602083015250604082013567ffffffffffffffff811115610cfe57610cfd610c59565b5b610d0a84828501610c26565b604083015250606082013567ffffffffffffffff811115610d2e57610d2d610c59565b5b610d3a84828501610c26565b606083015250608082013567ffffffffffffffff811115610d5e57610d5d610c59565b5b610d6a84828501610c26565b60808301525060a082013567ffffffffffffffff811115610d8e57610d8d610c59565b5b610d9a84828501610c26565b60a08301525092915050565b60008060408385031215610dbd57610dbc610b04565b5b600083013567ffffffffffffffff811115610ddb57610dda610b09565b5b610de785828601610c26565b925050602083013567ffffffffffffffff811115610e0857610e07610b09565b5b610e1485828601610c5e565b9150509250929050565b600060208284031215610e3457610e33610b04565b5b600082013567ffffffffffffffff811115610e5257610e51610b09565b5b610e5e84828501610c26565b91505092915050565b600081519050919050565b600082825260208201905092915050565b60005b83811015610ea1578082015181840152602081019050610e86565b83811115610eb0576000848401525b50505050565b6000610ec182610e67565b610ecb8185610e72565b9350610edb818560208601610e83565b610ee481610b18565b840191505092915050565b600060c0830160008301518482036000860152610f0c8282610eb6565b91505060208301518482036020860152610f268282610eb6565b91505060408301518482036040860152610f408282610eb6565b91505060608301518482036060860152610f5a8282610eb6565b91505060808301518482036080860152610f748282610eb6565b91505060a083015184820360a0860152610f8e8282610eb6565b9150508091505092915050565b60006020820190508181036000830152610fb58184610eef565b905092915050565b60008115159050919050565b610fd281610fbd565b8114610fdd57600080fd5b50565b600081359050610fef81610fc9565b92915050565b600060c0828403121561100b5761100a610c54565b5b61101560c0610b89565b9050600061102584828501610fe0565b600083015250602061103984828501610fe0565b602083015250604061104d84828501610fe0565b604083015250606061106184828501610fe0565b606083015250608061107584828501610fe0565b60808301525060a061108984828501610fe0565b60a08301525092915050565b60008060e083850312156110ac576110ab610b04565b5b600083013567ffffffffffffffff8111156110ca576110c9610b09565b5b6110d685828601610c26565b92505060206110e785828601610ff5565b9150509250929050565b6110fa81610fbd565b82525050565b600060208201905061111560008301846110f1565b92915050565b6000806040838503121561113257611131610b04565b5b600083013567ffffffffffffffff8111156111505761114f610b09565b5b61115c85828601610c26565b925050602083013567ffffffffffffffff81111561117d5761117c610b09565b5b61118985828601610c26565b9150509250929050565b600081905092915050565b60006111a982610e67565b6111b38185611193565b93506111c3818560208601610e83565b80840191505092915050565b60006111db828461119e565b915081905092915050565b7f4e487b7100000000000000000000000000000000000000000000000000000000600052602260045260246000fd5b6000600282049050600182168061122d57607f821691505b6020821081036112405761123f6111e6565b5b50919050565b60008190508160005260206000209050919050565b60006020601f8301049050919050565b600082821b905092915050565b6000600883026112a87fffffffffffffffffffffffffffffffffffffffffffffffffffffffffffffffff8261126b565b6112b2868361126b565b95508019841693508086168417925050509392505050565b6000819050919050565b6000819050919050565b60006112f96112f46112ef846112ca565b6112d4565b6112ca565b9050919050565b6000819050919050565b611313836112de565b61132761131f82611300565b848454611278565b825550505050565b600090565b61133c61132f565b61134781848461130a565b505050565b5b8181101561136b57611360600082611334565b60018101905061134d565b5050565b601f8211156113b05761138181611246565b61138a8461125b565b81016020851015611399578190505b6113ad6113a58561125b565b83018261134c565b50505b505050565b600082821c905092915050565b60006113d3600019846008026113b5565b1980831691505092915050565b60006113ec83836113c2565b9150826002028217905092915050565b61140582610e67565b67ffffffffffffffff81111561141e5761141d610b29565b5b6114288254611215565b61143382828561136f565b600060209050601f8311600181146114665760008415611454578287015190505b61145e85826113e0565b8655506114c6565b601f19841661147486611246565b60005b8281101561149c57848901518255600182019150602085019450602081019050611477565b868310156114b957848901516114b5601f8916826113c2565b8355505b6001600288020188555050505b505050505050565b6000815490506114dd81611215565b9050919050565b8181036114f25750506115ca565b6114fb826114ce565b67ffffffffffffffff81111561151457611513610b29565b5b61151e8254611215565b61152982828561136f565b6000601f8311600181146115585760008415611546578287015490505b61155085826113e0565b8655506115c3565b601f19841661156687611246565b965061157186611246565b60005b8281101561159957848901548255600182019150600185019450602081019050611574565b868310156115b657848901546115b2601f8916826113c2565b8355505b6001600288020188555050505b5050505050505b56fea2646970667358221220de3bbdd08b4584ca25efc0e8ab19f2d6e3dc694b3949a77156ae90efa9458ed464736f6c634300080f0033",
  "immutableReferences": {},
  "source": "// SPDX-License-Identifier: MIT\npragma solidity ^0.8.15;\n\nimport \"./IDID.sol\";\n\ncontract DID is IDID {\n    mapping(string => User) private user;\n    mapping(string => bool) private registeredUser;\n\n    string gender;\n    string name;\n    string age;\n    string addr;\n    string mobile;\n    string email;\n\n    function registerUser(string memory _hashedId, User memory _data) external {\n        require(!isRegistered(_hashedId));\n\n        User memory userObj;\n\n        userObj.gender = _data.gender;\n        userObj.name = _data.name;\n        userObj.age = _data.age;\n        userObj.addr = _data.addr;\n        userObj.mobile = _data.mobile;\n        userObj.email = _data.email;\n\n        registeredUser[_hashedId] = true;\n        user[_hashedId] = _data;\n    }\n\n    function updatePassword(\n        string memory _hashedId,\n        string memory _hashedId_new\n    ) external {\n        require(isRegistered(_hashedId));\n        user[_hashedId_new] = user[_hashedId];\n        registeredUser[_hashedId_new] = true;\n        deleteUser(_hashedId);\n    }\n\n    function updateUser(string memory _hashedId, User memory _data) external {\n        require(isRegistered(_hashedId));\n        User memory userObj;\n\n        userObj.gender = _data.gender;\n        userObj.name = _data.name;\n        userObj.age = _data.age;\n        userObj.addr = _data.addr;\n        userObj.mobile = _data.mobile;\n        userObj.email = _data.email;\n\n        user[_hashedId] = userObj;\n    }\n\n    function deleteUser(string memory _hashedId) public {\n        require(isRegistered(_hashedId));\n\n        delete user[_hashedId];\n        registeredUser[_hashedId] = false;\n    }\n\n    function getUser(string memory _hashedId)\n        public\n        view\n        override\n        returns (User memory)\n    {\n        return user[_hashedId];\n    }\n\n    function getVP(string memory _identifier, NeededUser memory _shouldSend)\n        external\n        view\n        returns (User memory)\n    {\n        require(isRegistered(_identifier));\n        User memory userObj;\n        User memory VP;\n        userObj = getUser(_identifier);\n\n        if (_shouldSend.addr) {\n            VP.addr = userObj.addr;\n        }\n        if (_shouldSend.gender) {\n            VP.gender = userObj.gender;\n        }\n        if (_shouldSend.name) {\n            VP.name = userObj.name;\n        }\n        if (_shouldSend.age) {\n            VP.age = userObj.age;\n        }\n        if (_shouldSend.mobile) {\n            VP.mobile = userObj.mobile;\n        }\n        if (_shouldSend.email) {\n            VP.email = userObj.email;\n        }\n        return VP;\n    }\n\n    function isRegistered(string memory _hashedId) public view returns (bool) {\n        return registeredUser[_hashedId];\n    }\n}\n",
  "sourcePath": "/Users/ansuhwan/project/Team_DAO/truffle/contracts/DID.sol",
  "compiler": {
    "name": "solc",
    "version": "0.8.15+commit.e14f2714.Emscripten.clang"
  },
  "schemaVersion": "3.4.5",
  "updatedAt": "2022-09-27T01:20:53.941Z",
  "networkType": "ethereum",
  "devdoc": {
    "kind": "dev",
    "methods": {},
    "version": 1
  },
  "userdoc": {
    "kind": "user",
    "methods": {},
    "version": 1
  }
}